{
  "contractName": "BlogStorage",
  "abi": [
    {
      "constant": true,
      "inputs": [
        {
          "name": "",
          "type": "uint256"
        }
      ],
      "name": "posts",
      "outputs": [
        {
          "name": "id",
          "type": "uint256"
        },
        {
          "name": "ipfsHash",
          "type": "string"
        },
        {
          "name": "name",
          "type": "string"
        },
        {
          "name": "creator",
          "type": "address"
        }
      ],
      "payable": false,
      "stateMutability": "view",
      "type": "function",
      "signature": "0x0b1e7f83"
    },
    {
      "constant": true,
      "inputs": [],
      "name": "numUsers",
      "outputs": [
        {
          "name": "",
          "type": "uint256"
        }
      ],
      "payable": false,
      "stateMutability": "view",
      "type": "function",
      "signature": "0x19a50f49"
    },
    {
      "constant": true,
      "inputs": [],
      "name": "postsCount",
      "outputs": [
        {
          "name": "",
          "type": "uint256"
        }
      ],
      "payable": false,
      "stateMutability": "view",
      "type": "function",
      "signature": "0x2dcbe545"
    },
    {
      "constant": true,
      "inputs": [
        {
          "name": "",
          "type": "address"
        }
      ],
      "name": "users",
      "outputs": [
        {
          "name": "id",
          "type": "uint256"
        },
        {
          "name": "email",
          "type": "string"
        },
        {
          "name": "creator",
          "type": "address"
        },
        {
          "name": "postCount",
          "type": "uint256"
        },
        {
          "name": "registered",
          "type": "bool"
        },
        {
          "name": "num_following",
          "type": "uint256"
        }
      ],
      "payable": false,
      "stateMutability": "view",
      "type": "function",
      "signature": "0xa87430ba"
    },
    {
      "constant": true,
      "inputs": [
        {
          "name": "",
          "type": "address"
        }
      ],
      "name": "registered",
      "outputs": [
        {
          "name": "",
          "type": "bool"
        }
      ],
      "payable": false,
      "stateMutability": "view",
      "type": "function",
      "signature": "0xb2dd5c07"
    },
    {
      "constant": false,
      "inputs": [
        {
          "name": "_ipfsHash",
          "type": "string"
        },
        {
          "name": "_name",
          "type": "string"
        }
      ],
      "name": "addPost",
      "outputs": [],
      "payable": false,
      "stateMutability": "nonpayable",
      "type": "function",
      "signature": "0xb02c6516"
    },
    {
      "constant": true,
      "inputs": [],
      "name": "confirmAdded",
      "outputs": [
        {
          "name": "",
          "type": "string"
        }
      ],
      "payable": false,
      "stateMutability": "view",
      "type": "function",
      "signature": "0xa94f8a06"
    },
    {
      "constant": true,
      "inputs": [],
      "name": "getPostCount",
      "outputs": [
        {
          "name": "",
          "type": "uint256"
        }
      ],
      "payable": false,
      "stateMutability": "view",
      "type": "function",
      "signature": "0xbcc95407"
    },
    {
      "constant": true,
      "inputs": [
        {
          "name": "postId",
          "type": "uint256"
        }
      ],
      "name": "getPostHash",
      "outputs": [
        {
          "name": "",
          "type": "string"
        }
      ],
      "payable": false,
      "stateMutability": "view",
      "type": "function",
      "signature": "0x3d3ac846"
    },
    {
      "constant": true,
      "inputs": [
        {
          "name": "postId",
          "type": "uint256"
        }
      ],
      "name": "getPostName",
      "outputs": [
        {
          "name": "",
          "type": "string"
        }
      ],
      "payable": false,
      "stateMutability": "view",
      "type": "function",
      "signature": "0xd61e0e11"
    },
    {
      "constant": true,
      "inputs": [
        {
          "name": "postNum",
          "type": "uint256"
        }
      ],
      "name": "getUserPostID",
      "outputs": [
        {
          "name": "",
          "type": "uint256"
        }
      ],
      "payable": false,
      "stateMutability": "view",
      "type": "function",
      "signature": "0x9da5bd4b"
    },
    {
      "constant": false,
      "inputs": [
        {
          "name": "_email",
          "type": "string"
        }
      ],
      "name": "addUser",
      "outputs": [
        {
          "name": "",
          "type": "bool"
        }
      ],
      "payable": true,
      "stateMutability": "payable",
      "type": "function",
      "signature": "0x18b8275a"
    },
    {
      "constant": true,
      "inputs": [],
      "name": "getNumUserPosts",
      "outputs": [
        {
          "name": "",
          "type": "uint256"
        }
      ],
      "payable": false,
      "stateMutability": "view",
      "type": "function",
      "signature": "0xd2227f3a"
    },
    {
      "constant": true,
      "inputs": [
        {
          "name": "_email",
          "type": "string"
        }
      ],
      "name": "signIn",
      "outputs": [
        {
          "name": "",
          "type": "bool"
        }
      ],
      "payable": false,
      "stateMutability": "view",
      "type": "function",
      "signature": "0xc95f728a"
    },
    {
      "constant": false,
      "inputs": [
        {
          "name": "_postID",
          "type": "uint256"
        }
      ],
      "name": "newPost",
      "outputs": [],
      "payable": false,
      "stateMutability": "nonpayable",
      "type": "function",
      "signature": "0xbe6f05fd"
    }
  ],
  "bytecode": "0x608060405234801561001057600080fd5b506118d6806100206000396000f3fe6080604052600436106100db576000357c0100000000000000000000000000000000000000000000000000000000900463ffffffff1680630b1e7f83146100e057806318b8275a1461023a57806319a50f491461030d5780632dcbe545146103385780633d3ac846146103635780639da5bd4b14610417578063a87430ba14610466578063a94f8a0614610583578063b02c651614610613578063b2dd5c0714610772578063bcc95407146107db578063be6f05fd14610806578063c95f728a14610841578063d2227f3a14610921578063d61e0e111461094c575b600080fd5b3480156100ec57600080fd5b506101196004803603602081101561010357600080fd5b8101908080359060200190929190505050610a00565b6040518085815260200180602001806020018473ffffffffffffffffffffffffffffffffffffffff1673ffffffffffffffffffffffffffffffffffffffff168152602001838103835286818151815260200191508051906020019080838360005b8381101561019557808201518184015260208101905061017a565b50505050905090810190601f1680156101c25780820380516001836020036101000a031916815260200191505b50838103825285818151815260200191508051906020019080838360005b838110156101fb5780820151818401526020810190506101e0565b50505050905090810190601f1680156102285780820380516001836020036101000a031916815260200191505b50965050505050505060405180910390f35b6102f36004803603602081101561025057600080fd5b810190808035906020019064010000000081111561026d57600080fd5b82018360208201111561027f57600080fd5b803590602001918460018302840111640100000000831117156102a157600080fd5b91908080601f016020809104026020016040519081016040528093929190818152602001838380828437600081840152601f19601f820116905080830192505050505050509192919290505050610b80565b604051808215151515815260200191505060405180910390f35b34801561031957600080fd5b50610322610e5a565b6040518082815260200191505060405180910390f35b34801561034457600080fd5b5061034d610e60565b6040518082815260200191505060405180910390f35b34801561036f57600080fd5b5061039c6004803603602081101561038657600080fd5b8101908080359060200190929190505050610e66565b6040518080602001828103825283818151815260200191508051906020019080838360005b838110156103dc5780820151818401526020810190506103c1565b50505050905090810190601f1680156104095780820380516001836020036101000a031916815260200191505b509250505060405180910390f35b34801561042357600080fd5b506104506004803603602081101561043a57600080fd5b8101908080359060200190929190505050610f1d565b6040518082815260200191505060405180910390f35b34801561047257600080fd5b506104b56004803603602081101561048957600080fd5b81019080803573ffffffffffffffffffffffffffffffffffffffff169060200190929190505050610f7f565b60405180878152602001806020018673ffffffffffffffffffffffffffffffffffffffff1673ffffffffffffffffffffffffffffffffffffffff16815260200185815260200184151515158152602001838152602001828103825287818151815260200191508051906020019080838360005b83811015610543578082015181840152602081019050610528565b50505050905090810190601f1680156105705780820380516001836020036101000a031916815260200191505b5097505050505050505060405180910390f35b34801561058f57600080fd5b50610598611080565b6040518080602001828103825283818151815260200191508051906020019080838360005b838110156105d85780820151818401526020810190506105bd565b50505050905090810190601f1680156106055780820380516001836020036101000a031916815260200191505b509250505060405180910390f35b34801561061f57600080fd5b506107706004803603604081101561063657600080fd5b810190808035906020019064010000000081111561065357600080fd5b82018360208201111561066557600080fd5b8035906020019184600183028401116401000000008311171561068757600080fd5b91908080601f016020809104026020016040519081016040528093929190818152602001838380828437600081840152601f19601f820116905080830192505050505050509192919290803590602001906401000000008111156106ea57600080fd5b8201836020820111156106fc57600080fd5b8035906020019184600183028401116401000000008311171561071e57600080fd5b91908080601f016020809104026020016040519081016040528093929190818152602001838380828437600081840152601f19601f820116905080830192505050505050509192919290505050611261565b005b34801561077e57600080fd5b506107c16004803603602081101561079557600080fd5b81019080803573ffffffffffffffffffffffffffffffffffffffff169060200190929190505050611403565b604051808215151515815260200191505060405180910390f35b3480156107e757600080fd5b506107f0611423565b6040518082815260200191505060405180910390f35b34801561081257600080fd5b5061083f6004803603602081101561082957600080fd5b810190808035906020019092919050505061142d565b005b34801561084d57600080fd5b506109076004803603602081101561086457600080fd5b810190808035906020019064010000000081111561088157600080fd5b82018360208201111561089357600080fd5b803590602001918460018302840111640100000000831117156108b557600080fd5b91908080601f016020809104026020016040519081016040528093929190818152602001838380828437600081840152601f19601f82011690508083019250505050505050919291929050505061151c565b604051808215151515815260200191505060405180910390f35b34801561092d57600080fd5b506109366116c5565b6040518082815260200191505060405180910390f35b34801561095857600080fd5b506109856004803603602081101561096f57600080fd5b810190808035906020019092919050505061170f565b6040518080602001828103825283818151815260200191508051906020019080838360005b838110156109c55780820151818401526020810190506109aa565b50505050905090810190601f1680156109f25780820380516001836020036101000a031916815260200191505b509250505060405180910390f35b6000602052806000526040600020600091509050806000015490806001018054600181600116156101000203166002900480601f016020809104026020016040519081016040528092919081815260200182805460018160011615610100020316600290048015610ab25780601f10610a8757610100808354040283529160200191610ab2565b820191906000526020600020905b815481529060010190602001808311610a9557829003601f168201915b505050505090806002018054600181600116156101000203166002900480601f016020809104026020016040519081016040528092919081815260200182805460018160011615610100020316600290048015610b505780601f10610b2557610100808354040283529160200191610b50565b820191906000526020600020905b815481529060010190602001808311610b3357829003601f168201915b5050505050908060030160009054906101000a900473ffffffffffffffffffffffffffffffffffffffff16905084565b6000600160003373ffffffffffffffffffffffffffffffffffffffff1673ffffffffffffffffffffffffffffffffffffffff16815260200190815260200160002060040160009054906101000a900460ff16151515610bde57600080fd5b816040516020018082805190602001908083835b602083101515610c175780518252602082019150602081019050602083039250610bf2565b6001836020036101000a0380198251168184511680821785525050505050509050019150506040516020818303038152906040528051906020012060019004600160003373ffffffffffffffffffffffffffffffffffffffff1673ffffffffffffffffffffffffffffffffffffffff1681526020019081526020016000206001016040516020018082805460018160011615610100020316600290048015610cf65780601f10610cd4576101008083540402835291820191610cf6565b820191906000526020600020905b815481529060010190602001808311610ce2575b5050915050604051602081830303815290604052805190602001206001900414151515610d2257600080fd5b60c06040519081016040528060035481526020018381526020013373ffffffffffffffffffffffffffffffffffffffff168152602001600081526020016001151581526020016000815250600160003373ffffffffffffffffffffffffffffffffffffffff1673ffffffffffffffffffffffffffffffffffffffff168152602001908152602001600020600082015181600001556020820151816001019080519060200190610dd29291906117c6565b5060408201518160020160006101000a81548173ffffffffffffffffffffffffffffffffffffffff021916908373ffffffffffffffffffffffffffffffffffffffff1602179055506060820151816003015560808201518160040160006101000a81548160ff02191690831515021790555060a0820151816005015590505060019050919050565b60035481565b60045481565b60606000808381526020019081526020016000206001018054600181600116156101000203166002900480601f016020809104026020016040519081016040528092919081815260200182805460018160011615610100020316600290048015610f115780601f10610ee657610100808354040283529160200191610f11565b820191906000526020600020905b815481529060010190602001808311610ef457829003601f168201915b50505050509050919050565b600080600160003373ffffffffffffffffffffffffffffffffffffffff1673ffffffffffffffffffffffffffffffffffffffff168152602001908152602001600020600601600084815260200190815260200160002054905080915050919050565b6001602052806000526040600020600091509050806000015490806001018054600181600116156101000203166002900480601f0160208091040260200160405190810160405280929190818152602001828054600181600116156101000203166002900480156110315780601f1061100657610100808354040283529160200191611031565b820191906000526020600020905b81548152906001019060200180831161101457829003601f168201915b5050505050908060020160009054906101000a900473ffffffffffffffffffffffffffffffffffffffff16908060030154908060040160009054906101000a900460ff16908060050154905086565b606061108a611846565b60008060045481526020019081526020016000206080604051908101604052908160008201548152602001600182018054600181600116156101000203166002900480601f01602080910402602001604051908101604052809291908181526020018280546001816001161561010002031660029004801561114d5780601f106111225761010080835404028352916020019161114d565b820191906000526020600020905b81548152906001019060200180831161113057829003601f168201915b50505050508152602001600282018054600181600116156101000203166002900480601f0160208091040260200160405190810160405280929190818152602001828054600181600116156101000203166002900480156111ef5780601f106111c4576101008083540402835291602001916111ef565b820191906000526020600020905b8154815290600101906020018083116111d257829003601f168201915b505050505081526020016003820160009054906101000a900473ffffffffffffffffffffffffffffffffffffffff1673ffffffffffffffffffffffffffffffffffffffff1673ffffffffffffffffffffffffffffffffffffffff16815250509050606081602001519050809250505090565b6004600081548092919060010191905055506000600160003373ffffffffffffffffffffffffffffffffffffffff1673ffffffffffffffffffffffffffffffffffffffff168152602001908152602001600020600301600081548092919060010191905055905060806040519081016040528060045481526020018481526020018381526020013373ffffffffffffffffffffffffffffffffffffffff16815250600080600454815260200190815260200160002060008201518160000155602082015181600101908051906020019061133c9291906117c6565b5060408201518160020190805190602001906113599291906117c6565b5060608201518160030160006101000a81548173ffffffffffffffffffffffffffffffffffffffff021916908373ffffffffffffffffffffffffffffffffffffffff160217905550905050600454600160003373ffffffffffffffffffffffffffffffffffffffff1673ffffffffffffffffffffffffffffffffffffffff168152602001908152602001600020600601600083815260200190815260200160002081905550505050565b60026020528060005260406000206000915054906101000a900460ff1681565b6000600454905090565b600160003373ffffffffffffffffffffffffffffffffffffffff1673ffffffffffffffffffffffffffffffffffffffff1681526020019081526020016000206003016000815480929190600101919050555080600160003373ffffffffffffffffffffffffffffffffffffffff1673ffffffffffffffffffffffffffffffffffffffff1681526020019081526020016000206006016000600160003373ffffffffffffffffffffffffffffffffffffffff1673ffffffffffffffffffffffffffffffffffffffff1681526020019081526020016000206003015481526020019081526020016000208190555050565b6000600160003373ffffffffffffffffffffffffffffffffffffffff1673ffffffffffffffffffffffffffffffffffffffff16815260200190815260200160002060040160009054906101000a900460ff16151561157957600080fd5b816040516020018082805190602001908083835b6020831015156115b2578051825260208201915060208101905060208303925061158d565b6001836020036101000a0380198251168184511680821785525050505050509050019150506040516020818303038152906040528051906020012060019004600160003373ffffffffffffffffffffffffffffffffffffffff1673ffffffffffffffffffffffffffffffffffffffff16815260200190815260200160002060010160405160200180828054600181600116156101000203166002900480156116915780601f1061166f576101008083540402835291820191611691565b820191906000526020600020905b81548152906001019060200180831161167d575b505091505060405160208183030381529060405280519060200120600190041415156116bc57600080fd5b60019050919050565b6000600160003373ffffffffffffffffffffffffffffffffffffffff1673ffffffffffffffffffffffffffffffffffffffff16815260200190815260200160002060030154905090565b60606000808381526020019081526020016000206002018054600181600116156101000203166002900480601f0160208091040260200160405190810160405280929190818152602001828054600181600116156101000203166002900480156117ba5780601f1061178f576101008083540402835291602001916117ba565b820191906000526020600020905b81548152906001019060200180831161179d57829003601f168201915b50505050509050919050565b828054600181600116156101000203166002900490600052602060002090601f016020900481019282601f1061180757805160ff1916838001178555611835565b82800160010185558215611835579182015b82811115611834578251825591602001919060010190611819565b5b5090506118429190611885565b5090565b608060405190810160405280600081526020016060815260200160608152602001600073ffffffffffffffffffffffffffffffffffffffff1681525090565b6118a791905b808211156118a357600081600090555060010161188b565b5090565b9056fea165627a7a723058207f5794118108e7fc4ab322d67fbf3d189e5244241348b387a95275214f04500b0029",
  "source": "pragma solidity 0.5.0;\n\n\ncontract BlogStorage {\n\n    struct Post {\n        uint id;\n        string ipfsHash;\n        string name;\n        address creator;\n    }\n\n    struct User {\n        uint id;\n        string email;\n        address creator;\n        uint postCount;\n        bool registered;\n        uint num_following;\n        mapping(uint => uint) postIDs;\n        mapping(uint => address) following;\n    }\n\n    mapping(uint => Post) public posts;\n\n    mapping(address => User) public users;\n\n    mapping(address => bool) public registered;\n\n    uint public numUsers;\n\n    uint public postsCount;\n\n    function addPost(string memory _ipfsHash, string memory _name) public{\n        postsCount++;\n        uint numUserPosts = users[msg.sender].postCount++;\n        posts[postsCount] = Post(postsCount, _ipfsHash, _name, msg.sender);\n        users[msg.sender].postIDs[numUserPosts] = postsCount;\n    }\n\n    function confirmAdded() public view returns (string memory) {\n        Post memory newPost = posts[postsCount];\n        string memory ipfsHash = newPost.ipfsHash;\n        return ipfsHash;\n\n    }\n\n    function getPostCount() public view returns (uint) {\n        return postsCount;\n    }\n\n    function getPostHash(uint postId) public view returns (string memory) {\n        return posts[postId].ipfsHash;\n    }\n\n    function getPostName(uint postId) public view returns (string memory) {\n        return posts[postId].name;\n    }\n\n    function getUserPostID(uint postNum) public view returns (uint) {\n        uint postID = users[msg.sender].postIDs[postNum];\n        return postID;\n    }\n\n\n    function addUser(string memory _email) public payable returns (bool){\n        require(!users[msg.sender].registered);\n        require((uint(keccak256(abi.encodePacked(users[msg.sender].email)))) != (uint(keccak256(abi.encodePacked(_email)))));\n\n        users[msg.sender] = User(numUsers, _email, msg.sender, 0, true, 0);\n        return true;\n    }\n\n    function getNumUserPosts() public view returns (uint) {\n        return users[msg.sender].postCount;\n    }\n\n    function signIn(string memory _email) public view returns (bool) {\n        require(users[msg.sender].registered);\n        require((uint(keccak256(abi.encodePacked(users[msg.sender].email)))) == (uint(keccak256(abi.encodePacked(_email)))));\n\n        return true;\n\n    }\n\n    function newPost(uint _postID) public{\n        users[msg.sender].postCount++;\n        users[msg.sender].postIDs[users[msg.sender].postCount] = _postID;\n    }\n\n}\n",
  "sourcePath": "/home/jack/College_Year_4/FYP_Implementation/web_app/contracts/BlogStorage.sol",
  "compiler": {
    "name": "solc",
    "version": "0.5.0+commit.1d4f565a.Emscripten.clang"
  },
  "schemaVersion": "3.0.0",
  "updatedAt": "2019-02-19T16:31:05.690Z",
  "devdoc": {
    "methods": {}
  },
  "userdoc": {
    "methods": {}
  }
}