{
  "contractName": "BlogStorage",
  "abi": [
    {
      "constant": true,
      "inputs": [
        {
          "name": "",
          "type": "uint256"
        }
      ],
      "name": "posts",
      "outputs": [
        {
          "name": "id",
          "type": "uint256"
        },
        {
          "name": "ipfsHash",
          "type": "string"
        },
        {
          "name": "name",
          "type": "string"
        },
        {
          "name": "creator",
          "type": "address"
        }
      ],
      "payable": false,
      "stateMutability": "view",
      "type": "function",
      "signature": "0x0b1e7f83"
    },
    {
      "constant": true,
      "inputs": [],
      "name": "numUsers",
      "outputs": [
        {
          "name": "",
          "type": "uint256"
        }
      ],
      "payable": false,
      "stateMutability": "view",
      "type": "function",
      "signature": "0x19a50f49"
    },
    {
      "constant": true,
      "inputs": [],
      "name": "postsCount",
      "outputs": [
        {
          "name": "",
          "type": "uint256"
        }
      ],
      "payable": false,
      "stateMutability": "view",
      "type": "function",
      "signature": "0x2dcbe545"
    },
    {
      "constant": true,
      "inputs": [
        {
          "name": "",
          "type": "address"
        }
      ],
      "name": "users",
      "outputs": [
        {
          "name": "id",
          "type": "uint256"
        },
        {
          "name": "email",
          "type": "string"
        },
        {
          "name": "creator",
          "type": "address"
        },
        {
          "name": "postCount",
          "type": "uint256"
        },
        {
          "name": "registered",
          "type": "bool"
        }
      ],
      "payable": false,
      "stateMutability": "view",
      "type": "function",
      "signature": "0xa87430ba"
    },
    {
      "constant": true,
      "inputs": [
        {
          "name": "",
          "type": "address"
        }
      ],
      "name": "registered",
      "outputs": [
        {
          "name": "",
          "type": "bool"
        }
      ],
      "payable": false,
      "stateMutability": "view",
      "type": "function",
      "signature": "0xb2dd5c07"
    },
    {
      "constant": false,
      "inputs": [
        {
          "name": "_ipfsHash",
          "type": "string"
        },
        {
          "name": "_name",
          "type": "string"
        }
      ],
      "name": "addPost",
      "outputs": [],
      "payable": false,
      "stateMutability": "nonpayable",
      "type": "function",
      "signature": "0xb02c6516"
    },
    {
      "constant": true,
      "inputs": [],
      "name": "confirmAdded",
      "outputs": [
        {
          "name": "",
          "type": "string"
        }
      ],
      "payable": false,
      "stateMutability": "view",
      "type": "function",
      "signature": "0xa94f8a06"
    },
    {
      "constant": true,
      "inputs": [],
      "name": "getPostCount",
      "outputs": [
        {
          "name": "",
          "type": "uint256"
        }
      ],
      "payable": false,
      "stateMutability": "view",
      "type": "function",
      "signature": "0xbcc95407"
    },
    {
      "constant": true,
      "inputs": [
        {
          "name": "postId",
          "type": "uint256"
        }
      ],
      "name": "getPostHash",
      "outputs": [
        {
          "name": "",
          "type": "string"
        }
      ],
      "payable": false,
      "stateMutability": "view",
      "type": "function",
      "signature": "0x3d3ac846"
    },
    {
      "constant": true,
      "inputs": [
        {
          "name": "postId",
          "type": "uint256"
        }
      ],
      "name": "getPostName",
      "outputs": [
        {
          "name": "",
          "type": "string"
        }
      ],
      "payable": false,
      "stateMutability": "view",
      "type": "function",
      "signature": "0xd61e0e11"
    },
    {
      "constant": true,
      "inputs": [
        {
          "name": "postNum",
          "type": "uint256"
        }
      ],
      "name": "getUserPostID",
      "outputs": [
        {
          "name": "",
          "type": "uint256"
        }
      ],
      "payable": false,
      "stateMutability": "view",
      "type": "function",
      "signature": "0x9da5bd4b"
    },
    {
      "constant": false,
      "inputs": [
        {
          "name": "_email",
          "type": "string"
        }
      ],
      "name": "addUser",
      "outputs": [
        {
          "name": "",
          "type": "bool"
        }
      ],
      "payable": true,
      "stateMutability": "payable",
      "type": "function",
      "signature": "0x18b8275a"
    },
    {
      "constant": true,
      "inputs": [],
      "name": "getNumUserPosts",
      "outputs": [
        {
          "name": "",
          "type": "uint256"
        }
      ],
      "payable": false,
      "stateMutability": "view",
      "type": "function",
      "signature": "0xd2227f3a"
    },
    {
      "constant": true,
      "inputs": [
        {
          "name": "_email",
          "type": "string"
        }
      ],
      "name": "signIn",
      "outputs": [
        {
          "name": "",
          "type": "bool"
        }
      ],
      "payable": false,
      "stateMutability": "view",
      "type": "function",
      "signature": "0xc95f728a"
    },
    {
      "constant": false,
      "inputs": [
        {
          "name": "_postID",
          "type": "uint256"
        }
      ],
      "name": "newPost",
      "outputs": [],
      "payable": false,
      "stateMutability": "nonpayable",
      "type": "function",
      "signature": "0xbe6f05fd"
    }
  ],
  "bytecode": "0x608060405234801561001057600080fd5b50611774806100206000396000f3fe6080604052600436106100db576000357c0100000000000000000000000000000000000000000000000000000000900463ffffffff1680630b1e7f83146100e057806318b8275a1461023a57806319a50f491461030d5780632dcbe545146103385780633d3ac846146103635780639da5bd4b14610417578063a87430ba14610466578063a94f8a061461057c578063b02c65161461060c578063b2dd5c071461076b578063bcc95407146107d4578063be6f05fd146107ff578063c95f728a1461083a578063d2227f3a1461091a578063d61e0e1114610945575b600080fd5b3480156100ec57600080fd5b506101196004803603602081101561010357600080fd5b81019080803590602001909291905050506109f9565b6040518085815260200180602001806020018473ffffffffffffffffffffffffffffffffffffffff1673ffffffffffffffffffffffffffffffffffffffff168152602001838103835286818151815260200191508051906020019080838360005b8381101561019557808201518184015260208101905061017a565b50505050905090810190601f1680156101c25780820380516001836020036101000a031916815260200191505b50838103825285818151815260200191508051906020019080838360005b838110156101fb5780820151818401526020810190506101e0565b50505050905090810190601f1680156102285780820380516001836020036101000a031916815260200191505b50965050505050505060405180910390f35b6102f36004803603602081101561025057600080fd5b810190808035906020019064010000000081111561026d57600080fd5b82018360208201111561027f57600080fd5b803590602001918460018302840111640100000000831117156102a157600080fd5b91908080601f016020809104026020016040519081016040528093929190818152602001838380828437600081840152601f19601f820116905080830192505050505050509192919290505050610b79565b604051808215151515815260200191505060405180910390f35b34801561031957600080fd5b50610322610cfe565b6040518082815260200191505060405180910390f35b34801561034457600080fd5b5061034d610d04565b6040518082815260200191505060405180910390f35b34801561036f57600080fd5b5061039c6004803603602081101561038657600080fd5b8101908080359060200190929190505050610d0a565b6040518080602001828103825283818151815260200191508051906020019080838360005b838110156103dc5780820151818401526020810190506103c1565b50505050905090810190601f1680156104095780820380516001836020036101000a031916815260200191505b509250505060405180910390f35b34801561042357600080fd5b506104506004803603602081101561043a57600080fd5b8101908080359060200190929190505050610dc1565b6040518082815260200191505060405180910390f35b34801561047257600080fd5b506104b56004803603602081101561048957600080fd5b81019080803573ffffffffffffffffffffffffffffffffffffffff169060200190929190505050610e23565b60405180868152602001806020018573ffffffffffffffffffffffffffffffffffffffff1673ffffffffffffffffffffffffffffffffffffffff16815260200184815260200183151515158152602001828103825286818151815260200191508051906020019080838360005b8381101561053d578082015181840152602081019050610522565b50505050905090810190601f16801561056a5780820380516001836020036101000a031916815260200191505b50965050505050505060405180910390f35b34801561058857600080fd5b50610591610f1e565b6040518080602001828103825283818151815260200191508051906020019080838360005b838110156105d15780820151818401526020810190506105b6565b50505050905090810190601f1680156105fe5780820380516001836020036101000a031916815260200191505b509250505060405180910390f35b34801561061857600080fd5b506107696004803603604081101561062f57600080fd5b810190808035906020019064010000000081111561064c57600080fd5b82018360208201111561065e57600080fd5b8035906020019184600183028401116401000000008311171561068057600080fd5b91908080601f016020809104026020016040519081016040528093929190818152602001838380828437600081840152601f19601f820116905080830192505050505050509192919290803590602001906401000000008111156106e357600080fd5b8201836020820111156106f557600080fd5b8035906020019184600183028401116401000000008311171561071757600080fd5b91908080601f016020809104026020016040519081016040528093929190818152602001838380828437600081840152601f19601f8201169050808301925050505050505091929192905050506110ff565b005b34801561077757600080fd5b506107ba6004803603602081101561078e57600080fd5b81019080803573ffffffffffffffffffffffffffffffffffffffff1690602001909291905050506112a1565b604051808215151515815260200191505060405180910390f35b3480156107e057600080fd5b506107e96112c1565b6040518082815260200191505060405180910390f35b34801561080b57600080fd5b506108386004803603602081101561082257600080fd5b81019080803590602001909291905050506112cb565b005b34801561084657600080fd5b506109006004803603602081101561085d57600080fd5b810190808035906020019064010000000081111561087a57600080fd5b82018360208201111561088c57600080fd5b803590602001918460018302840111640100000000831117156108ae57600080fd5b91908080601f016020809104026020016040519081016040528093929190818152602001838380828437600081840152601f19601f8201169050808301925050505050505091929192905050506113ba565b604051808215151515815260200191505060405180910390f35b34801561092657600080fd5b5061092f611563565b6040518082815260200191505060405180910390f35b34801561095157600080fd5b5061097e6004803603602081101561096857600080fd5b81019080803590602001909291905050506115ad565b6040518080602001828103825283818151815260200191508051906020019080838360005b838110156109be5780820151818401526020810190506109a3565b50505050905090810190601f1680156109eb5780820380516001836020036101000a031916815260200191505b509250505060405180910390f35b6000602052806000526040600020600091509050806000015490806001018054600181600116156101000203166002900480601f016020809104026020016040519081016040528092919081815260200182805460018160011615610100020316600290048015610aab5780601f10610a8057610100808354040283529160200191610aab565b820191906000526020600020905b815481529060010190602001808311610a8e57829003601f168201915b505050505090806002018054600181600116156101000203166002900480601f016020809104026020016040519081016040528092919081815260200182805460018160011615610100020316600290048015610b495780601f10610b1e57610100808354040283529160200191610b49565b820191906000526020600020905b815481529060010190602001808311610b2c57829003601f168201915b5050505050908060030160009054906101000a900473ffffffffffffffffffffffffffffffffffffffff16905084565b6000600160003373ffffffffffffffffffffffffffffffffffffffff1673ffffffffffffffffffffffffffffffffffffffff16815260200190815260200160002060040160009054906101000a900460ff16151515610bd757600080fd5b60a06040519081016040528060035481526020018381526020013373ffffffffffffffffffffffffffffffffffffffff1681526020016000815260200160011515815250600160003373ffffffffffffffffffffffffffffffffffffffff1673ffffffffffffffffffffffffffffffffffffffff168152602001908152602001600020600082015181600001556020820151816001019080519060200190610c80929190611664565b5060408201518160020160006101000a81548173ffffffffffffffffffffffffffffffffffffffff021916908373ffffffffffffffffffffffffffffffffffffffff1602179055506060820151816003015560808201518160040160006101000a81548160ff02191690831515021790555090505060019050919050565b60035481565b60045481565b60606000808381526020019081526020016000206001018054600181600116156101000203166002900480601f016020809104026020016040519081016040528092919081815260200182805460018160011615610100020316600290048015610db55780601f10610d8a57610100808354040283529160200191610db5565b820191906000526020600020905b815481529060010190602001808311610d9857829003601f168201915b50505050509050919050565b600080600160003373ffffffffffffffffffffffffffffffffffffffff1673ffffffffffffffffffffffffffffffffffffffff168152602001908152602001600020600501600084815260200190815260200160002054905080915050919050565b6001602052806000526040600020600091509050806000015490806001018054600181600116156101000203166002900480601f016020809104026020016040519081016040528092919081815260200182805460018160011615610100020316600290048015610ed55780601f10610eaa57610100808354040283529160200191610ed5565b820191906000526020600020905b815481529060010190602001808311610eb857829003601f168201915b5050505050908060020160009054906101000a900473ffffffffffffffffffffffffffffffffffffffff16908060030154908060040160009054906101000a900460ff16905085565b6060610f286116e4565b60008060045481526020019081526020016000206080604051908101604052908160008201548152602001600182018054600181600116156101000203166002900480601f016020809104026020016040519081016040528092919081815260200182805460018160011615610100020316600290048015610feb5780601f10610fc057610100808354040283529160200191610feb565b820191906000526020600020905b815481529060010190602001808311610fce57829003601f168201915b50505050508152602001600282018054600181600116156101000203166002900480601f01602080910402602001604051908101604052809291908181526020018280546001816001161561010002031660029004801561108d5780601f106110625761010080835404028352916020019161108d565b820191906000526020600020905b81548152906001019060200180831161107057829003601f168201915b505050505081526020016003820160009054906101000a900473ffffffffffffffffffffffffffffffffffffffff1673ffffffffffffffffffffffffffffffffffffffff1673ffffffffffffffffffffffffffffffffffffffff16815250509050606081602001519050809250505090565b6004600081548092919060010191905055506000600160003373ffffffffffffffffffffffffffffffffffffffff1673ffffffffffffffffffffffffffffffffffffffff168152602001908152602001600020600301600081548092919060010191905055905060806040519081016040528060045481526020018481526020018381526020013373ffffffffffffffffffffffffffffffffffffffff1681525060008060045481526020019081526020016000206000820151816000015560208201518160010190805190602001906111da929190611664565b5060408201518160020190805190602001906111f7929190611664565b5060608201518160030160006101000a81548173ffffffffffffffffffffffffffffffffffffffff021916908373ffffffffffffffffffffffffffffffffffffffff160217905550905050600454600160003373ffffffffffffffffffffffffffffffffffffffff1673ffffffffffffffffffffffffffffffffffffffff168152602001908152602001600020600501600083815260200190815260200160002081905550505050565b60026020528060005260406000206000915054906101000a900460ff1681565b6000600454905090565b600160003373ffffffffffffffffffffffffffffffffffffffff1673ffffffffffffffffffffffffffffffffffffffff1681526020019081526020016000206003016000815480929190600101919050555080600160003373ffffffffffffffffffffffffffffffffffffffff1673ffffffffffffffffffffffffffffffffffffffff1681526020019081526020016000206005016000600160003373ffffffffffffffffffffffffffffffffffffffff1673ffffffffffffffffffffffffffffffffffffffff1681526020019081526020016000206003015481526020019081526020016000208190555050565b6000600160003373ffffffffffffffffffffffffffffffffffffffff1673ffffffffffffffffffffffffffffffffffffffff16815260200190815260200160002060040160009054906101000a900460ff16151561141757600080fd5b816040516020018082805190602001908083835b602083101515611450578051825260208201915060208101905060208303925061142b565b6001836020036101000a0380198251168184511680821785525050505050509050019150506040516020818303038152906040528051906020012060019004600160003373ffffffffffffffffffffffffffffffffffffffff1673ffffffffffffffffffffffffffffffffffffffff168152602001908152602001600020600101604051602001808280546001816001161561010002031660029004801561152f5780601f1061150d57610100808354040283529182019161152f565b820191906000526020600020905b81548152906001019060200180831161151b575b5050915050604051602081830303815290604052805190602001206001900414151561155a57600080fd5b60019050919050565b6000600160003373ffffffffffffffffffffffffffffffffffffffff1673ffffffffffffffffffffffffffffffffffffffff16815260200190815260200160002060030154905090565b60606000808381526020019081526020016000206002018054600181600116156101000203166002900480601f0160208091040260200160405190810160405280929190818152602001828054600181600116156101000203166002900480156116585780601f1061162d57610100808354040283529160200191611658565b820191906000526020600020905b81548152906001019060200180831161163b57829003601f168201915b50505050509050919050565b828054600181600116156101000203166002900490600052602060002090601f016020900481019282601f106116a557805160ff19168380011785556116d3565b828001600101855582156116d3579182015b828111156116d25782518255916020019190600101906116b7565b5b5090506116e09190611723565b5090565b608060405190810160405280600081526020016060815260200160608152602001600073ffffffffffffffffffffffffffffffffffffffff1681525090565b61174591905b80821115611741576000816000905550600101611729565b5090565b9056fea165627a7a72305820866e1733361971b46d97a6547175ff781c1b2cb30c715b896741522e6b74d4c40029",
  "source": "pragma solidity 0.5.0;\n\n\ncontract BlogStorage {\n\n    struct Post {\n        uint id;\n        string ipfsHash;\n        string name;\n        address creator;\n    }\n\n    struct User {\n        uint id;\n        string email;\n        address creator;\n        uint postCount;\n        bool registered;\n        mapping(uint => uint) postIDs;\n    }\n\n    mapping(uint => Post) public posts;\n\n    mapping(address => User) public users;\n\n    mapping(address => bool) public registered;\n\n    uint public numUsers;\n\n    uint public postsCount;\n\n    function addPost(string memory _ipfsHash, string memory _name) public{\n        postsCount++;\n        uint numUserPosts = users[msg.sender].postCount++;\n        posts[postsCount] = Post(postsCount, _ipfsHash, _name, msg.sender);\n        users[msg.sender].postIDs[numUserPosts] = postsCount;\n    }\n\n    function confirmAdded() public view returns (string memory) {\n        Post memory newPost = posts[postsCount];\n        string memory ipfsHash = newPost.ipfsHash;\n        return ipfsHash;\n\n    }\n\n    function getPostCount() public view returns (uint) {\n        return postsCount;\n    }\n\n    function getPostHash(uint postId) public view returns (string memory) {\n        return posts[postId].ipfsHash;\n    }\n\n    function getPostName(uint postId) public view returns (string memory) {\n        return posts[postId].name;\n    }\n\n    function getUserPostID(uint postNum) public view returns (uint) {\n        uint postID = users[msg.sender].postIDs[postNum];\n        return postID;\n    }\n\n\n    function addUser(string memory _email) public payable returns (bool){\n        require(!users[msg.sender].registered);\n//        require((uint(keccak256(abi.encodePacked(users[msg.sender].email)))) != (uint(keccak256(abi.encodePacked(_email)))));\n\n        users[msg.sender] = User(numUsers, _email, msg.sender, 0, true);\n        return true;\n    }\n\n    function getNumUserPosts() public view returns (uint) {\n        return users[msg.sender].postCount;\n    }\n\n    function signIn(string memory _email) public view returns (bool) {\n        require(users[msg.sender].registered);\n        require((uint(keccak256(abi.encodePacked(users[msg.sender].email)))) == (uint(keccak256(abi.encodePacked(_email)))));\n\n        return true;\n\n    }\n\n    function newPost(uint _postID) public{\n        users[msg.sender].postCount++;\n        users[msg.sender].postIDs[users[msg.sender].postCount] = _postID;\n    }\n\n}\n",
  "sourcePath": "/home/jack/College_Year_4/FYP_Implementation/web_app/contracts/BlogStorage.sol",
  "compiler": {
    "name": "solc",
    "version": "0.5.0+commit.1d4f565a.Emscripten.clang"
  },
  "schemaVersion": "3.0.0",
  "updatedAt": "2019-02-19T16:26:13.618Z",
  "devdoc": {
    "methods": {}
  },
  "userdoc": {
    "methods": {}
  }
}