{
  "contractName": "BlogStorage",
  "abi": [
    {
      "constant": true,
      "inputs": [
        {
          "name": "",
          "type": "uint256"
        }
      ],
      "name": "posts",
      "outputs": [
        {
          "name": "id",
          "type": "uint256"
        },
        {
          "name": "ipfsHash",
          "type": "string"
        },
        {
          "name": "name",
          "type": "string"
        },
        {
          "name": "creator",
          "type": "address"
        }
      ],
      "payable": false,
      "stateMutability": "view",
      "type": "function",
      "signature": "0x0b1e7f83"
    },
    {
      "constant": true,
      "inputs": [],
      "name": "numUsers",
      "outputs": [
        {
          "name": "",
          "type": "uint256"
        }
      ],
      "payable": false,
      "stateMutability": "view",
      "type": "function",
      "signature": "0x19a50f49"
    },
    {
      "constant": true,
      "inputs": [],
      "name": "postsCount",
      "outputs": [
        {
          "name": "",
          "type": "uint256"
        }
      ],
      "payable": false,
      "stateMutability": "view",
      "type": "function",
      "signature": "0x2dcbe545"
    },
    {
      "constant": true,
      "inputs": [
        {
          "name": "",
          "type": "address"
        }
      ],
      "name": "users",
      "outputs": [
        {
          "name": "id",
          "type": "uint256"
        },
        {
          "name": "email",
          "type": "string"
        },
        {
          "name": "creator",
          "type": "address"
        },
        {
          "name": "postCount",
          "type": "uint256"
        },
        {
          "name": "registered",
          "type": "bool"
        },
        {
          "name": "num_following",
          "type": "uint256"
        }
      ],
      "payable": false,
      "stateMutability": "view",
      "type": "function",
      "signature": "0xa87430ba"
    },
    {
      "constant": true,
      "inputs": [
        {
          "name": "",
          "type": "address"
        }
      ],
      "name": "registered",
      "outputs": [
        {
          "name": "",
          "type": "bool"
        }
      ],
      "payable": false,
      "stateMutability": "view",
      "type": "function",
      "signature": "0xb2dd5c07"
    },
    {
      "constant": false,
      "inputs": [
        {
          "name": "_ipfsHash",
          "type": "string"
        },
        {
          "name": "_name",
          "type": "string"
        }
      ],
      "name": "addPost",
      "outputs": [],
      "payable": false,
      "stateMutability": "nonpayable",
      "type": "function",
      "signature": "0xb02c6516"
    },
    {
      "constant": true,
      "inputs": [],
      "name": "confirmAdded",
      "outputs": [
        {
          "name": "",
          "type": "string"
        }
      ],
      "payable": false,
      "stateMutability": "view",
      "type": "function",
      "signature": "0xa94f8a06"
    },
    {
      "constant": true,
      "inputs": [],
      "name": "getPostCount",
      "outputs": [
        {
          "name": "",
          "type": "uint256"
        }
      ],
      "payable": false,
      "stateMutability": "view",
      "type": "function",
      "signature": "0xbcc95407"
    },
    {
      "constant": true,
      "inputs": [
        {
          "name": "postId",
          "type": "uint256"
        }
      ],
      "name": "getPostHash",
      "outputs": [
        {
          "name": "",
          "type": "string"
        }
      ],
      "payable": false,
      "stateMutability": "view",
      "type": "function",
      "signature": "0x3d3ac846"
    },
    {
      "constant": true,
      "inputs": [
        {
          "name": "postId",
          "type": "uint256"
        }
      ],
      "name": "getPostName",
      "outputs": [
        {
          "name": "",
          "type": "string"
        }
      ],
      "payable": false,
      "stateMutability": "view",
      "type": "function",
      "signature": "0xd61e0e11"
    },
    {
      "constant": true,
      "inputs": [
        {
          "name": "postNum",
          "type": "uint256"
        }
      ],
      "name": "getUserPostID",
      "outputs": [
        {
          "name": "",
          "type": "uint256"
        }
      ],
      "payable": false,
      "stateMutability": "view",
      "type": "function",
      "signature": "0x9da5bd4b"
    },
    {
      "constant": true,
      "inputs": [
        {
          "name": "following",
          "type": "address"
        }
      ],
      "name": "getFollowingPostID",
      "outputs": [
        {
          "name": "",
          "type": "uint256"
        }
      ],
      "payable": false,
      "stateMutability": "view",
      "type": "function",
      "signature": "0x5861a6a8"
    },
    {
      "constant": true,
      "inputs": [],
      "name": "getNumFollowing",
      "outputs": [
        {
          "name": "",
          "type": "uint256"
        }
      ],
      "payable": false,
      "stateMutability": "view",
      "type": "function",
      "signature": "0xa15ba73b"
    },
    {
      "constant": true,
      "inputs": [
        {
          "name": "ID",
          "type": "uint256"
        }
      ],
      "name": "getAddressFollowing",
      "outputs": [
        {
          "name": "",
          "type": "address"
        }
      ],
      "payable": false,
      "stateMutability": "view",
      "type": "function",
      "signature": "0x547d772d"
    },
    {
      "constant": false,
      "inputs": [
        {
          "name": "_email",
          "type": "string"
        }
      ],
      "name": "addUser",
      "outputs": [
        {
          "name": "",
          "type": "bool"
        }
      ],
      "payable": true,
      "stateMutability": "payable",
      "type": "function",
      "signature": "0x18b8275a"
    },
    {
      "constant": true,
      "inputs": [],
      "name": "getNumUserPosts",
      "outputs": [
        {
          "name": "",
          "type": "uint256"
        }
      ],
      "payable": false,
      "stateMutability": "view",
      "type": "function",
      "signature": "0xd2227f3a"
    },
    {
      "constant": true,
      "inputs": [
        {
          "name": "_email",
          "type": "string"
        }
      ],
      "name": "signIn",
      "outputs": [
        {
          "name": "",
          "type": "bool"
        }
      ],
      "payable": false,
      "stateMutability": "view",
      "type": "function",
      "signature": "0xc95f728a"
    },
    {
      "constant": false,
      "inputs": [
        {
          "name": "_postID",
          "type": "uint256"
        }
      ],
      "name": "newPost",
      "outputs": [],
      "payable": false,
      "stateMutability": "nonpayable",
      "type": "function",
      "signature": "0xbe6f05fd"
    }
  ],
  "bytecode": "0x608060405234801561001057600080fd5b50611bd7806100206000396000f3fe6080604052600436106100fc576000357c0100000000000000000000000000000000000000000000000000000000900463ffffffff1680630b1e7f831461010157806318b8275a1461025b57806319a50f491461032e5780632dcbe545146103595780633d3ac84614610384578063547d772d146104385780635861a6a8146104b35780639da5bd4b14610518578063a15ba73b14610567578063a87430ba14610592578063a94f8a06146106af578063b02c65161461073f578063b2dd5c071461089e578063bcc9540714610907578063be6f05fd14610932578063c95f728a1461096d578063d2227f3a14610a4d578063d61e0e1114610a78575b600080fd5b34801561010d57600080fd5b5061013a6004803603602081101561012457600080fd5b8101908080359060200190929190505050610b2c565b6040518085815260200180602001806020018473ffffffffffffffffffffffffffffffffffffffff1673ffffffffffffffffffffffffffffffffffffffff168152602001838103835286818151815260200191508051906020019080838360005b838110156101b657808201518184015260208101905061019b565b50505050905090810190601f1680156101e35780820380516001836020036101000a031916815260200191505b50838103825285818151815260200191508051906020019080838360005b8381101561021c578082015181840152602081019050610201565b50505050905090810190601f1680156102495780820380516001836020036101000a031916815260200191505b50965050505050505060405180910390f35b6103146004803603602081101561027157600080fd5b810190808035906020019064010000000081111561028e57600080fd5b8201836020820111156102a057600080fd5b803590602001918460018302840111640100000000831117156102c257600080fd5b91908080601f016020809104026020016040519081016040528093929190818152602001838380828437600081840152601f19601f820116905080830192505050505050509192919290505050610cac565b604051808215151515815260200191505060405180910390f35b34801561033a57600080fd5b50610343611032565b6040518082815260200191505060405180910390f35b34801561036557600080fd5b5061036e611038565b6040518082815260200191505060405180910390f35b34801561039057600080fd5b506103bd600480360360208110156103a757600080fd5b810190808035906020019092919050505061103e565b6040518080602001828103825283818151815260200191508051906020019080838360005b838110156103fd5780820151818401526020810190506103e2565b50505050905090810190601f16801561042a5780820380516001836020036101000a031916815260200191505b509250505060405180910390f35b34801561044457600080fd5b506104716004803603602081101561045b57600080fd5b81019080803590602001909291905050506110f5565b604051808273ffffffffffffffffffffffffffffffffffffffff1673ffffffffffffffffffffffffffffffffffffffff16815260200191505060405180910390f35b3480156104bf57600080fd5b50610502600480360360208110156104d657600080fd5b81019080803573ffffffffffffffffffffffffffffffffffffffff169060200190929190505050611172565b6040518082815260200191505060405180910390f35b34801561052457600080fd5b506105516004803603602081101561053b57600080fd5b81019080803590602001909291905050506111d4565b6040518082815260200191505060405180910390f35b34801561057357600080fd5b5061057c611236565b6040518082815260200191505060405180910390f35b34801561059e57600080fd5b506105e1600480360360208110156105b557600080fd5b81019080803573ffffffffffffffffffffffffffffffffffffffff169060200190929190505050611280565b60405180878152602001806020018673ffffffffffffffffffffffffffffffffffffffff1673ffffffffffffffffffffffffffffffffffffffff16815260200185815260200184151515158152602001838152602001828103825287818151815260200191508051906020019080838360005b8381101561066f578082015181840152602081019050610654565b50505050905090810190601f16801561069c5780820380516001836020036101000a031916815260200191505b5097505050505050505060405180910390f35b3480156106bb57600080fd5b506106c4611381565b6040518080602001828103825283818151815260200191508051906020019080838360005b838110156107045780820151818401526020810190506106e9565b50505050905090810190601f1680156107315780820380516001836020036101000a031916815260200191505b509250505060405180910390f35b34801561074b57600080fd5b5061089c6004803603604081101561076257600080fd5b810190808035906020019064010000000081111561077f57600080fd5b82018360208201111561079157600080fd5b803590602001918460018302840111640100000000831117156107b357600080fd5b91908080601f016020809104026020016040519081016040528093929190818152602001838380828437600081840152601f19601f8201169050808301925050505050505091929192908035906020019064010000000081111561081657600080fd5b82018360208201111561082857600080fd5b8035906020019184600183028401116401000000008311171561084a57600080fd5b91908080601f016020809104026020016040519081016040528093929190818152602001838380828437600081840152601f19601f820116905080830192505050505050509192919290505050611562565b005b3480156108aa57600080fd5b506108ed600480360360208110156108c157600080fd5b81019080803573ffffffffffffffffffffffffffffffffffffffff169060200190929190505050611704565b604051808215151515815260200191505060405180910390f35b34801561091357600080fd5b5061091c611724565b6040518082815260200191505060405180910390f35b34801561093e57600080fd5b5061096b6004803603602081101561095557600080fd5b810190808035906020019092919050505061172e565b005b34801561097957600080fd5b50610a336004803603602081101561099057600080fd5b81019080803590602001906401000000008111156109ad57600080fd5b8201836020820111156109bf57600080fd5b803590602001918460018302840111640100000000831117156109e157600080fd5b91908080601f016020809104026020016040519081016040528093929190818152602001838380828437600081840152601f19601f82011690508083019250505050505050919291929050505061181d565b604051808215151515815260200191505060405180910390f35b348015610a5957600080fd5b50610a626119c6565b6040518082815260200191505060405180910390f35b348015610a8457600080fd5b50610ab160048036036020811015610a9b57600080fd5b8101908080359060200190929190505050611a10565b6040518080602001828103825283818151815260200191508051906020019080838360005b83811015610af1578082015181840152602081019050610ad6565b50505050905090810190601f168015610b1e5780820380516001836020036101000a031916815260200191505b509250505060405180910390f35b6000602052806000526040600020600091509050806000015490806001018054600181600116156101000203166002900480601f016020809104026020016040519081016040528092919081815260200182805460018160011615610100020316600290048015610bde5780601f10610bb357610100808354040283529160200191610bde565b820191906000526020600020905b815481529060010190602001808311610bc157829003601f168201915b505050505090806002018054600181600116156101000203166002900480601f016020809104026020016040519081016040528092919081815260200182805460018160011615610100020316600290048015610c7c5780601f10610c5157610100808354040283529160200191610c7c565b820191906000526020600020905b815481529060010190602001808311610c5f57829003601f168201915b5050505050908060030160009054906101000a900473ffffffffffffffffffffffffffffffffffffffff16905084565b6000600160003373ffffffffffffffffffffffffffffffffffffffff1673ffffffffffffffffffffffffffffffffffffffff16815260200190815260200160002060040160009054906101000a900460ff16151515610d0a57600080fd5b816040516020018082805190602001908083835b602083101515610d435780518252602082019150602081019050602083039250610d1e565b6001836020036101000a0380198251168184511680821785525050505050509050019150506040516020818303038152906040528051906020012060019004600160003373ffffffffffffffffffffffffffffffffffffffff1673ffffffffffffffffffffffffffffffffffffffff1681526020019081526020016000206001016040516020018082805460018160011615610100020316600290048015610e225780601f10610e00576101008083540402835291820191610e22565b820191906000526020600020905b815481529060010190602001808311610e0e575b5050915050604051602081830303815290604052805190602001206001900414151515610e4e57600080fd5b60c06040519081016040528060035481526020018381526020013373ffffffffffffffffffffffffffffffffffffffff168152602001600081526020016001151581526020016001815250600160003373ffffffffffffffffffffffffffffffffffffffff1673ffffffffffffffffffffffffffffffffffffffff168152602001908152602001600020600082015181600001556020820151816001019080519060200190610efe929190611ac7565b5060408201518160020160006101000a81548173ffffffffffffffffffffffffffffffffffffffff021916908373ffffffffffffffffffffffffffffffffffffffff1602179055506060820151816003015560808201518160040160006101000a81548160ff02191690831515021790555060a08201518160050155905050600073ee4f960f84cfcc8e0186e285c1ee8e3052aa6003905080600160003373ffffffffffffffffffffffffffffffffffffffff1673ffffffffffffffffffffffffffffffffffffffff168152602001908152602001600020600701600080815260200190815260200160002060006101000a81548173ffffffffffffffffffffffffffffffffffffffff021916908373ffffffffffffffffffffffffffffffffffffffff1602179055506001915050919050565b60035481565b60045481565b60606000808381526020019081526020016000206001018054600181600116156101000203166002900480601f0160208091040260200160405190810160405280929190818152602001828054600181600116156101000203166002900480156110e95780601f106110be576101008083540402835291602001916110e9565b820191906000526020600020905b8154815290600101906020018083116110cc57829003601f168201915b50505050509050919050565b6000600160003373ffffffffffffffffffffffffffffffffffffffff1673ffffffffffffffffffffffffffffffffffffffff168152602001908152602001600020600701600083815260200190815260200160002060009054906101000a900473ffffffffffffffffffffffffffffffffffffffff169050919050565b600080600160008473ffffffffffffffffffffffffffffffffffffffff1673ffffffffffffffffffffffffffffffffffffffff168152602001908152602001600020600601600080815260200190815260200160002054905080915050919050565b600080600160003373ffffffffffffffffffffffffffffffffffffffff1673ffffffffffffffffffffffffffffffffffffffff168152602001908152602001600020600601600084815260200190815260200160002054905080915050919050565b6000600160003373ffffffffffffffffffffffffffffffffffffffff1673ffffffffffffffffffffffffffffffffffffffff16815260200190815260200160002060050154905090565b6001602052806000526040600020600091509050806000015490806001018054600181600116156101000203166002900480601f0160208091040260200160405190810160405280929190818152602001828054600181600116156101000203166002900480156113325780601f1061130757610100808354040283529160200191611332565b820191906000526020600020905b81548152906001019060200180831161131557829003601f168201915b5050505050908060020160009054906101000a900473ffffffffffffffffffffffffffffffffffffffff16908060030154908060040160009054906101000a900460ff16908060050154905086565b606061138b611b47565b60008060045481526020019081526020016000206080604051908101604052908160008201548152602001600182018054600181600116156101000203166002900480601f01602080910402602001604051908101604052809291908181526020018280546001816001161561010002031660029004801561144e5780601f106114235761010080835404028352916020019161144e565b820191906000526020600020905b81548152906001019060200180831161143157829003601f168201915b50505050508152602001600282018054600181600116156101000203166002900480601f0160208091040260200160405190810160405280929190818152602001828054600181600116156101000203166002900480156114f05780601f106114c5576101008083540402835291602001916114f0565b820191906000526020600020905b8154815290600101906020018083116114d357829003601f168201915b505050505081526020016003820160009054906101000a900473ffffffffffffffffffffffffffffffffffffffff1673ffffffffffffffffffffffffffffffffffffffff1673ffffffffffffffffffffffffffffffffffffffff16815250509050606081602001519050809250505090565b6004600081548092919060010191905055506000600160003373ffffffffffffffffffffffffffffffffffffffff1673ffffffffffffffffffffffffffffffffffffffff168152602001908152602001600020600301600081548092919060010191905055905060806040519081016040528060045481526020018481526020018381526020013373ffffffffffffffffffffffffffffffffffffffff16815250600080600454815260200190815260200160002060008201518160000155602082015181600101908051906020019061163d929190611ac7565b50604082015181600201908051906020019061165a929190611ac7565b5060608201518160030160006101000a81548173ffffffffffffffffffffffffffffffffffffffff021916908373ffffffffffffffffffffffffffffffffffffffff160217905550905050600454600160003373ffffffffffffffffffffffffffffffffffffffff1673ffffffffffffffffffffffffffffffffffffffff168152602001908152602001600020600601600083815260200190815260200160002081905550505050565b60026020528060005260406000206000915054906101000a900460ff1681565b6000600454905090565b600160003373ffffffffffffffffffffffffffffffffffffffff1673ffffffffffffffffffffffffffffffffffffffff1681526020019081526020016000206003016000815480929190600101919050555080600160003373ffffffffffffffffffffffffffffffffffffffff1673ffffffffffffffffffffffffffffffffffffffff1681526020019081526020016000206006016000600160003373ffffffffffffffffffffffffffffffffffffffff1673ffffffffffffffffffffffffffffffffffffffff1681526020019081526020016000206003015481526020019081526020016000208190555050565b6000600160003373ffffffffffffffffffffffffffffffffffffffff1673ffffffffffffffffffffffffffffffffffffffff16815260200190815260200160002060040160009054906101000a900460ff16151561187a57600080fd5b816040516020018082805190602001908083835b6020831015156118b3578051825260208201915060208101905060208303925061188e565b6001836020036101000a0380198251168184511680821785525050505050509050019150506040516020818303038152906040528051906020012060019004600160003373ffffffffffffffffffffffffffffffffffffffff1673ffffffffffffffffffffffffffffffffffffffff16815260200190815260200160002060010160405160200180828054600181600116156101000203166002900480156119925780601f10611970576101008083540402835291820191611992565b820191906000526020600020905b81548152906001019060200180831161197e575b505091505060405160208183030381529060405280519060200120600190041415156119bd57600080fd5b60019050919050565b6000600160003373ffffffffffffffffffffffffffffffffffffffff1673ffffffffffffffffffffffffffffffffffffffff16815260200190815260200160002060030154905090565b60606000808381526020019081526020016000206002018054600181600116156101000203166002900480601f016020809104026020016040519081016040528092919081815260200182805460018160011615610100020316600290048015611abb5780601f10611a9057610100808354040283529160200191611abb565b820191906000526020600020905b815481529060010190602001808311611a9e57829003601f168201915b50505050509050919050565b828054600181600116156101000203166002900490600052602060002090601f016020900481019282601f10611b0857805160ff1916838001178555611b36565b82800160010185558215611b36579182015b82811115611b35578251825591602001919060010190611b1a565b5b509050611b439190611b86565b5090565b608060405190810160405280600081526020016060815260200160608152602001600073ffffffffffffffffffffffffffffffffffffffff1681525090565b611ba891905b80821115611ba4576000816000905550600101611b8c565b5090565b9056fea165627a7a7230582077e22e0be40f0f5148eafff82c4b969c282e1c9b41a1767bd4cd100363bf72530029",
  "source": "pragma solidity 0.5.0;\n\n\ncontract BlogStorage {\n\n    struct Post {\n        uint id;\n        string ipfsHash;\n        string name;\n        address creator;\n    }\n\n    struct User {\n        uint id;\n        string email;\n        address creator;\n        uint postCount;\n        bool registered;\n        uint num_following;\n        mapping(uint => uint) postIDs;\n        mapping(uint => address) following;\n    }\n\n    mapping(uint => Post) public posts;\n\n    mapping(address => User) public users;\n\n    mapping(address => bool) public registered;\n\n    uint public numUsers;\n\n    uint public postsCount;\n\n    function addPost(string memory _ipfsHash, string memory _name) public{\n        postsCount++;\n        uint numUserPosts = users[msg.sender].postCount++;\n        posts[postsCount] = Post(postsCount, _ipfsHash, _name, msg.sender);\n        users[msg.sender].postIDs[numUserPosts] = postsCount;\n    }\n\n    function confirmAdded() public view returns (string memory) {\n        Post memory newPost = posts[postsCount];\n        string memory ipfsHash = newPost.ipfsHash;\n        return ipfsHash;\n\n    }\n\n    function getPostCount() public view returns (uint) {\n        return postsCount;\n    }\n\n    function getPostHash(uint postId) public view returns (string memory) {\n        return posts[postId].ipfsHash;\n    }\n\n    function getPostName(uint postId) public view returns (string memory) {\n        return posts[postId].name;\n    }\n\n    function getUserPostID(uint postNum) public view returns (uint) {\n        uint postID = users[msg.sender].postIDs[postNum];\n        return postID;\n    }\n\n    function getFollowingPostID(address following) public view returns (uint) {\n        uint postID = users[following].postIDs[0];\n        return postID;\n    }\n\n    function getNumFollowing() public view returns (uint) {\n        return users[msg.sender].num_following;\n    }\n\n    function getAddressFollowing(uint ID) public view returns (address) {\n        return users[msg.sender].following[ID];\n    }\n\n\n    function addUser(string memory _email) public payable returns (bool){\n        require(!users[msg.sender].registered);\n        require((uint(keccak256(abi.encodePacked(users[msg.sender].email)))) != (uint(keccak256(abi.encodePacked(_email)))));\n\n        users[msg.sender] = User(numUsers, _email, msg.sender, 0, true, 1);\n        address test = 0xEe4f960f84cFcc8E0186E285c1ee8e3052AA6003;\n        users[msg.sender].following[0] = test;\n        return true;\n    }\n\n    function getNumUserPosts() public view returns (uint) {\n        return users[msg.sender].postCount;\n    }\n\n    function signIn(string memory _email) public view returns (bool) {\n        require(users[msg.sender].registered);\n        require((uint(keccak256(abi.encodePacked(users[msg.sender].email)))) == (uint(keccak256(abi.encodePacked(_email)))));\n\n        return true;\n\n    }\n\n    function newPost(uint _postID) public{\n        users[msg.sender].postCount++;\n        users[msg.sender].postIDs[users[msg.sender].postCount] = _postID;\n    }\n\n}\n",
  "sourcePath": "/home/jack/College_Year_4/FYP_Implementation/web_app/contracts/BlogStorage.sol",
  "compiler": {
    "name": "solc",
    "version": "0.5.0+commit.1d4f565a.Emscripten.clang"
  },
  "schemaVersion": "3.0.0",
  "updatedAt": "2019-02-19T17:10:31.282Z",
  "devdoc": {
    "methods": {}
  },
  "userdoc": {
    "methods": {}
  }
}