{
  "contractName": "BlogStorage",
  "abi": [
    {
      "constant": true,
      "inputs": [
        {
          "name": "",
          "type": "uint256"
        }
      ],
      "name": "posts",
      "outputs": [
        {
          "name": "id",
          "type": "uint256"
        },
        {
          "name": "ipfsHash",
          "type": "string"
        },
        {
          "name": "name",
          "type": "string"
        },
        {
          "name": "creator",
          "type": "address"
        }
      ],
      "payable": false,
      "stateMutability": "view",
      "type": "function",
      "signature": "0x0b1e7f83"
    },
    {
      "constant": true,
      "inputs": [],
      "name": "numUsers",
      "outputs": [
        {
          "name": "",
          "type": "uint256"
        }
      ],
      "payable": false,
      "stateMutability": "view",
      "type": "function",
      "signature": "0x19a50f49"
    },
    {
      "constant": true,
      "inputs": [],
      "name": "postsCount",
      "outputs": [
        {
          "name": "",
          "type": "uint256"
        }
      ],
      "payable": false,
      "stateMutability": "view",
      "type": "function",
      "signature": "0x2dcbe545"
    },
    {
      "constant": true,
      "inputs": [
        {
          "name": "",
          "type": "address"
        }
      ],
      "name": "users",
      "outputs": [
        {
          "name": "id",
          "type": "uint256"
        },
        {
          "name": "email",
          "type": "string"
        },
        {
          "name": "name",
          "type": "string"
        },
        {
          "name": "creator",
          "type": "address"
        },
        {
          "name": "postCount",
          "type": "uint256"
        }
      ],
      "payable": false,
      "stateMutability": "view",
      "type": "function",
      "signature": "0xa87430ba"
    },
    {
      "constant": true,
      "inputs": [
        {
          "name": "",
          "type": "address"
        }
      ],
      "name": "registered",
      "outputs": [
        {
          "name": "",
          "type": "bool"
        }
      ],
      "payable": false,
      "stateMutability": "view",
      "type": "function",
      "signature": "0xb2dd5c07"
    },
    {
      "constant": false,
      "inputs": [
        {
          "name": "_ipfsHash",
          "type": "string"
        },
        {
          "name": "_name",
          "type": "string"
        }
      ],
      "name": "addPost",
      "outputs": [],
      "payable": false,
      "stateMutability": "nonpayable",
      "type": "function",
      "signature": "0xb02c6516"
    },
    {
      "constant": true,
      "inputs": [],
      "name": "confirmAdded",
      "outputs": [
        {
          "name": "",
          "type": "string"
        }
      ],
      "payable": false,
      "stateMutability": "view",
      "type": "function",
      "signature": "0xa94f8a06"
    },
    {
      "constant": true,
      "inputs": [],
      "name": "getPostCount",
      "outputs": [
        {
          "name": "",
          "type": "uint256"
        }
      ],
      "payable": false,
      "stateMutability": "view",
      "type": "function",
      "signature": "0xbcc95407"
    },
    {
      "constant": true,
      "inputs": [
        {
          "name": "postId",
          "type": "uint256"
        }
      ],
      "name": "getPostHash",
      "outputs": [
        {
          "name": "",
          "type": "string"
        }
      ],
      "payable": false,
      "stateMutability": "view",
      "type": "function",
      "signature": "0x3d3ac846"
    },
    {
      "constant": true,
      "inputs": [
        {
          "name": "postId",
          "type": "uint256"
        }
      ],
      "name": "getPostName",
      "outputs": [
        {
          "name": "",
          "type": "string"
        }
      ],
      "payable": false,
      "stateMutability": "view",
      "type": "function",
      "signature": "0xd61e0e11"
    },
    {
      "constant": true,
      "inputs": [
        {
          "name": "postNum",
          "type": "uint256"
        }
      ],
      "name": "getUserPostID",
      "outputs": [
        {
          "name": "",
          "type": "uint256"
        }
      ],
      "payable": false,
      "stateMutability": "view",
      "type": "function",
      "signature": "0x9da5bd4b"
    },
    {
      "constant": false,
      "inputs": [
        {
          "name": "_email",
          "type": "string"
        },
        {
          "name": "_name",
          "type": "string"
        }
      ],
      "name": "addUser",
      "outputs": [
        {
          "name": "",
          "type": "bool"
        }
      ],
      "payable": true,
      "stateMutability": "payable",
      "type": "function",
      "signature": "0x079eaf34"
    },
    {
      "constant": true,
      "inputs": [],
      "name": "getNumUserPosts",
      "outputs": [
        {
          "name": "",
          "type": "uint256"
        }
      ],
      "payable": false,
      "stateMutability": "view",
      "type": "function",
      "signature": "0xd2227f3a"
    },
    {
      "constant": true,
      "inputs": [
        {
          "name": "_email",
          "type": "string"
        }
      ],
      "name": "signIn",
      "outputs": [
        {
          "name": "",
          "type": "bool"
        }
      ],
      "payable": false,
      "stateMutability": "view",
      "type": "function",
      "signature": "0xc95f728a"
    },
    {
      "constant": false,
      "inputs": [
        {
          "name": "_postID",
          "type": "uint256"
        }
      ],
      "name": "newPost",
      "outputs": [],
      "payable": false,
      "stateMutability": "nonpayable",
      "type": "function",
      "signature": "0xbe6f05fd"
    }
  ],
  "bytecode": "0x608060405234801561001057600080fd5b50611944806100206000396000f3fe6080604052600436106100db576000357c0100000000000000000000000000000000000000000000000000000000900463ffffffff168063079eaf34146100e05780630b1e7f831461024a57806319a50f49146103a45780632dcbe545146103cf5780633d3ac846146103fa5780639da5bd4b146104ae578063a87430ba146104fd578063a94f8a0614610674578063b02c651614610704578063b2dd5c0714610863578063bcc95407146108cc578063be6f05fd146108f7578063c95f728a14610932578063d2227f3a14610a12578063d61e0e1114610a3d575b600080fd5b610230600480360360408110156100f657600080fd5b810190808035906020019064010000000081111561011357600080fd5b82018360208201111561012557600080fd5b8035906020019184600183028401116401000000008311171561014757600080fd5b91908080601f016020809104026020016040519081016040528093929190818152602001838380828437600081840152601f19601f820116905080830192505050505050509192919290803590602001906401000000008111156101aa57600080fd5b8201836020820111156101bc57600080fd5b803590602001918460018302840111640100000000831117156101de57600080fd5b91908080601f016020809104026020016040519081016040528093929190818152602001838380828437600081840152601f19601f820116905080830192505050505050509192919290505050610af1565b604051808215151515815260200191505060405180910390f35b34801561025657600080fd5b506102836004803603602081101561026d57600080fd5b8101908080359060200190929190505050610cc6565b6040518085815260200180602001806020018473ffffffffffffffffffffffffffffffffffffffff1673ffffffffffffffffffffffffffffffffffffffff168152602001838103835286818151815260200191508051906020019080838360005b838110156102ff5780820151818401526020810190506102e4565b50505050905090810190601f16801561032c5780820380516001836020036101000a031916815260200191505b50838103825285818151815260200191508051906020019080838360005b8381101561036557808201518184015260208101905061034a565b50505050905090810190601f1680156103925780820380516001836020036101000a031916815260200191505b50965050505050505060405180910390f35b3480156103b057600080fd5b506103b9610e46565b6040518082815260200191505060405180910390f35b3480156103db57600080fd5b506103e4610e4c565b6040518082815260200191505060405180910390f35b34801561040657600080fd5b506104336004803603602081101561041d57600080fd5b8101908080359060200190929190505050610e52565b6040518080602001828103825283818151815260200191508051906020019080838360005b83811015610473578082015181840152602081019050610458565b50505050905090810190601f1680156104a05780820380516001836020036101000a031916815260200191505b509250505060405180910390f35b3480156104ba57600080fd5b506104e7600480360360208110156104d157600080fd5b8101908080359060200190929190505050610f09565b6040518082815260200191505060405180910390f35b34801561050957600080fd5b5061054c6004803603602081101561052057600080fd5b81019080803573ffffffffffffffffffffffffffffffffffffffff169060200190929190505050610f6b565b6040518086815260200180602001806020018573ffffffffffffffffffffffffffffffffffffffff1673ffffffffffffffffffffffffffffffffffffffff168152602001848152602001838103835287818151815260200191508051906020019080838360005b838110156105ce5780820151818401526020810190506105b3565b50505050905090810190601f1680156105fb5780820380516001836020036101000a031916815260200191505b50838103825286818151815260200191508051906020019080838360005b83811015610634578082015181840152602081019050610619565b50505050905090810190601f1680156106615780820380516001836020036101000a031916815260200191505b5097505050505050505060405180910390f35b34801561068057600080fd5b506106896110f1565b6040518080602001828103825283818151815260200191508051906020019080838360005b838110156106c95780820151818401526020810190506106ae565b50505050905090810190601f1680156106f65780820380516001836020036101000a031916815260200191505b509250505060405180910390f35b34801561071057600080fd5b506108616004803603604081101561072757600080fd5b810190808035906020019064010000000081111561074457600080fd5b82018360208201111561075657600080fd5b8035906020019184600183028401116401000000008311171561077857600080fd5b91908080601f016020809104026020016040519081016040528093929190818152602001838380828437600081840152601f19601f820116905080830192505050505050509192919290803590602001906401000000008111156107db57600080fd5b8201836020820111156107ed57600080fd5b8035906020019184600183028401116401000000008311171561080f57600080fd5b91908080601f016020809104026020016040519081016040528093929190818152602001838380828437600081840152601f19601f8201169050808301925050505050505091929192905050506112d2565b005b34801561086f57600080fd5b506108b26004803603602081101561088657600080fd5b81019080803573ffffffffffffffffffffffffffffffffffffffff169060200190929190505050611474565b604051808215151515815260200191505060405180910390f35b3480156108d857600080fd5b506108e1611494565b6040518082815260200191505060405180910390f35b34801561090357600080fd5b506109306004803603602081101561091a57600080fd5b810190808035906020019092919050505061149e565b005b34801561093e57600080fd5b506109f86004803603602081101561095557600080fd5b810190808035906020019064010000000081111561097257600080fd5b82018360208201111561098457600080fd5b803590602001918460018302840111640100000000831117156109a657600080fd5b91908080601f016020809104026020016040519081016040528093929190818152602001838380828437600081840152601f19601f82011690508083019250505050505050919291929050505061158d565b604051808215151515815260200191505060405180910390f35b348015610a1e57600080fd5b50610a27611733565b6040518082815260200191505060405180910390f35b348015610a4957600080fd5b50610a7660048036036020811015610a6057600080fd5b810190808035906020019092919050505061177d565b6040518080602001828103825283818151815260200191508051906020019080838360005b83811015610ab6578082015181840152602081019050610a9b565b50505050905090810190601f168015610ae35780820380516001836020036101000a031916815260200191505b509250505060405180910390f35b6000600260003373ffffffffffffffffffffffffffffffffffffffff1673ffffffffffffffffffffffffffffffffffffffff16815260200190815260200160002060009054906101000a900460ff16151515610b4c57600080fd5b60a06040519081016040528060035481526020018481526020018381526020013373ffffffffffffffffffffffffffffffffffffffff1681526020016000815250600160003373ffffffffffffffffffffffffffffffffffffffff1673ffffffffffffffffffffffffffffffffffffffff168152602001908152602001600020600082015181600001556020820151816001019080519060200190610bf2929190611834565b506040820151816002019080519060200190610c0f929190611834565b5060608201518160030160006101000a81548173ffffffffffffffffffffffffffffffffffffffff021916908373ffffffffffffffffffffffffffffffffffffffff160217905550608082015181600401559050506001600260003373ffffffffffffffffffffffffffffffffffffffff1673ffffffffffffffffffffffffffffffffffffffff16815260200190815260200160002060006101000a81548160ff0219169083151502179055506001905092915050565b6000602052806000526040600020600091509050806000015490806001018054600181600116156101000203166002900480601f016020809104026020016040519081016040528092919081815260200182805460018160011615610100020316600290048015610d785780601f10610d4d57610100808354040283529160200191610d78565b820191906000526020600020905b815481529060010190602001808311610d5b57829003601f168201915b505050505090806002018054600181600116156101000203166002900480601f016020809104026020016040519081016040528092919081815260200182805460018160011615610100020316600290048015610e165780601f10610deb57610100808354040283529160200191610e16565b820191906000526020600020905b815481529060010190602001808311610df957829003601f168201915b5050505050908060030160009054906101000a900473ffffffffffffffffffffffffffffffffffffffff16905084565b60035481565b60045481565b60606000808381526020019081526020016000206001018054600181600116156101000203166002900480601f016020809104026020016040519081016040528092919081815260200182805460018160011615610100020316600290048015610efd5780601f10610ed257610100808354040283529160200191610efd565b820191906000526020600020905b815481529060010190602001808311610ee057829003601f168201915b50505050509050919050565b600080600160003373ffffffffffffffffffffffffffffffffffffffff1673ffffffffffffffffffffffffffffffffffffffff168152602001908152602001600020600501600084815260200190815260200160002054905080915050919050565b6001602052806000526040600020600091509050806000015490806001018054600181600116156101000203166002900480601f01602080910402602001604051908101604052809291908181526020018280546001816001161561010002031660029004801561101d5780601f10610ff25761010080835404028352916020019161101d565b820191906000526020600020905b81548152906001019060200180831161100057829003601f168201915b505050505090806002018054600181600116156101000203166002900480601f0160208091040260200160405190810160405280929190818152602001828054600181600116156101000203166002900480156110bb5780601f10611090576101008083540402835291602001916110bb565b820191906000526020600020905b81548152906001019060200180831161109e57829003601f168201915b5050505050908060030160009054906101000a900473ffffffffffffffffffffffffffffffffffffffff16908060040154905085565b60606110fb6118b4565b60008060045481526020019081526020016000206080604051908101604052908160008201548152602001600182018054600181600116156101000203166002900480601f0160208091040260200160405190810160405280929190818152602001828054600181600116156101000203166002900480156111be5780601f10611193576101008083540402835291602001916111be565b820191906000526020600020905b8154815290600101906020018083116111a157829003601f168201915b50505050508152602001600282018054600181600116156101000203166002900480601f0160208091040260200160405190810160405280929190818152602001828054600181600116156101000203166002900480156112605780601f1061123557610100808354040283529160200191611260565b820191906000526020600020905b81548152906001019060200180831161124357829003601f168201915b505050505081526020016003820160009054906101000a900473ffffffffffffffffffffffffffffffffffffffff1673ffffffffffffffffffffffffffffffffffffffff1673ffffffffffffffffffffffffffffffffffffffff16815250509050606081602001519050809250505090565b6004600081548092919060010191905055506000600160003373ffffffffffffffffffffffffffffffffffffffff1673ffffffffffffffffffffffffffffffffffffffff168152602001908152602001600020600401600081548092919060010191905055905060806040519081016040528060045481526020018481526020018381526020013373ffffffffffffffffffffffffffffffffffffffff1681525060008060045481526020019081526020016000206000820151816000015560208201518160010190805190602001906113ad929190611834565b5060408201518160020190805190602001906113ca929190611834565b5060608201518160030160006101000a81548173ffffffffffffffffffffffffffffffffffffffff021916908373ffffffffffffffffffffffffffffffffffffffff160217905550905050600454600160003373ffffffffffffffffffffffffffffffffffffffff1673ffffffffffffffffffffffffffffffffffffffff168152602001908152602001600020600501600083815260200190815260200160002081905550505050565b60026020528060005260406000206000915054906101000a900460ff1681565b6000600454905090565b600160003373ffffffffffffffffffffffffffffffffffffffff1673ffffffffffffffffffffffffffffffffffffffff1681526020019081526020016000206004016000815480929190600101919050555080600160003373ffffffffffffffffffffffffffffffffffffffff1673ffffffffffffffffffffffffffffffffffffffff1681526020019081526020016000206005016000600160003373ffffffffffffffffffffffffffffffffffffffff1673ffffffffffffffffffffffffffffffffffffffff1681526020019081526020016000206004015481526020019081526020016000208190555050565b6000600260003373ffffffffffffffffffffffffffffffffffffffff1673ffffffffffffffffffffffffffffffffffffffff16815260200190815260200160002060009054906101000a900460ff1615156115e757600080fd5b816040516020018082805190602001908083835b60208310151561162057805182526020820191506020810190506020830392506115fb565b6001836020036101000a0380198251168184511680821785525050505050509050019150506040516020818303038152906040528051906020012060019004600160003373ffffffffffffffffffffffffffffffffffffffff1673ffffffffffffffffffffffffffffffffffffffff16815260200190815260200160002060010160405160200180828054600181600116156101000203166002900480156116ff5780601f106116dd5761010080835404028352918201916116ff565b820191906000526020600020905b8154815290600101906020018083116116eb575b5050915050604051602081830303815290604052805190602001206001900414151561172a57600080fd5b60019050919050565b6000600160003373ffffffffffffffffffffffffffffffffffffffff1673ffffffffffffffffffffffffffffffffffffffff16815260200190815260200160002060040154905090565b60606000808381526020019081526020016000206002018054600181600116156101000203166002900480601f0160208091040260200160405190810160405280929190818152602001828054600181600116156101000203166002900480156118285780601f106117fd57610100808354040283529160200191611828565b820191906000526020600020905b81548152906001019060200180831161180b57829003601f168201915b50505050509050919050565b828054600181600116156101000203166002900490600052602060002090601f016020900481019282601f1061187557805160ff19168380011785556118a3565b828001600101855582156118a3579182015b828111156118a2578251825591602001919060010190611887565b5b5090506118b091906118f3565b5090565b608060405190810160405280600081526020016060815260200160608152602001600073ffffffffffffffffffffffffffffffffffffffff1681525090565b61191591905b808211156119115760008160009055506001016118f9565b5090565b9056fea165627a7a72305820f596f7a372b08e6e305bfddafdb494e68dda446eb24df246c2a44691092bc8f30029",
  "source": "pragma solidity 0.5.0;\n\n\ncontract BlogStorage {\n\n    struct Post {\n        uint id;\n        string ipfsHash;\n        string name;\n        address creator;\n    }\n\n    struct User {\n        uint id;\n        string email;\n        string name;\n        address creator;\n        uint postCount;\n        mapping(uint => uint) postIDs;\n    }\n\n    mapping(uint => Post) public posts;\n\n    mapping(address => User) public users;\n\n    mapping(address => bool) public registered;\n\n    uint public numUsers;\n\n    uint public postsCount;\n\n    function addPost(string memory _ipfsHash, string memory _name) public{\n        postsCount++;\n        uint numUserPosts = users[msg.sender].postCount++;\n        posts[postsCount] = Post(postsCount, _ipfsHash, _name, msg.sender);\n        users[msg.sender].postIDs[numUserPosts] = postsCount;\n    }\n\n    function confirmAdded() public view returns (string memory) {\n        Post memory newPost = posts[postsCount];\n        string memory ipfsHash = newPost.ipfsHash;\n        return ipfsHash;\n\n    }\n\n    function getPostCount() public view returns (uint) {\n        return postsCount;\n    }\n\n    function getPostHash(uint postId) public view returns (string memory) {\n        return posts[postId].ipfsHash;\n    }\n\n    function getPostName(uint postId) public view returns (string memory) {\n        return posts[postId].name;\n    }\n\n    function getUserPostID(uint postNum) public view returns (uint) {\n        uint postID = users[msg.sender].postIDs[postNum];\n        return postID;\n    }\n\n\n    function addUser(string memory _email, string memory _name) public payable returns (bool){\n        require(!registered[msg.sender]);\n//        require((uint(keccak256(abi.encodePacked(users[msg.sender].email)))) != (uint(keccak256(abi.encodePacked(_email)))));\n\n        users[msg.sender] = User(numUsers, _email, _name, msg.sender, 0);\n        registered[msg.sender] = true;\n        return true;\n    }\n\n    function getNumUserPosts() public view returns (uint) {\n        return users[msg.sender].postCount;\n    }\n\n    function signIn(string memory _email) public view returns (bool) {\n        require(registered[msg.sender]);\n        require((uint(keccak256(abi.encodePacked(users[msg.sender].email)))) == (uint(keccak256(abi.encodePacked(_email)))));\n\n        return true;\n\n    }\n\n    function newPost(uint _postID) public{\n        users[msg.sender].postCount++;\n        users[msg.sender].postIDs[users[msg.sender].postCount] = _postID;\n    }\n\n}\n",
  "sourcePath": "/home/jack/College_Year_4/FYP_Implementation/web_app/contracts/BlogStorage.sol",
  "compiler": {
    "name": "solc",
    "version": "0.5.0+commit.1d4f565a.Emscripten.clang"
  },
  "schemaVersion": "3.0.0",
  "updatedAt": "2019-02-19T16:16:36.092Z",
  "devdoc": {
    "methods": {}
  },
  "userdoc": {
    "methods": {}
  }
}